:020000040800F2
:1000000030B70020A57200080D7300084584000871
:100010000D7300080D7300080D7300080000000048
:100020000000000000000000000000000D73000848
:100030000D730008000000000D7300081D84000807
:100040000D7300080D7300080D73000851D50008EA
:100050000D7300080D730008C9200008ED2000088A
:100060001121000835210008592100080D730008EE
:100070000D7300080D7300080D7300080D73000860
:100080000D7300080D7300080D7300080D73000850
:100090000D7300080D7300080D7300087D21000822
:1000A0000D7300080D7300080D7300080D73000830
:1000B0000DB400080D7300080D7300080D730008DF
:1000C0000D7300080D7300080D7300080D73000810
:1000D0000D730008BD9C0008E99C0008159D0008F0
:1000E000092200087DD500080D7300080D73000873
:1000F0000D7300080D7300080D7300080D730008E0
:100100000D7300080D7300080D7300080D730008CF
:10011000419D00086D9D00080D7300080D730008D7
:100120000D7300080D7300080D7300080D730008AF
:100130000D7300080D7300080D7300080D7300089F
:100140000D7300080D7300080D7300080D7300088F
:100150000D7300080D7300080D730008999D0008C9
:100160000D7300080D7300080D7300080D7300086F
:100170000D7300080D7300080D7300080D7300085F
:100180000D7300080D73000880B483B000AF786071
:10019000034A7B6813600C37BD465DF8047B7047EB
:1001A000DC00274280B485B000AF7860294B1B6823
:1001B0007A6812881344FB607A68FB689A421FD001
:1001C000FB681B79002B1BD1234B1B68FA689A42F2
:1001D00016D0224B1A68FB689A4202D11F4A7B68EC
:1001E0001360FB681A887B681A801A4B1B68FA68D0
:1001F000128813447A6817490968521A92B25A80D1
:10020000144B1B687A6852881344BB60BA687B68D9
:100210009A421AD0BB681B79002B16D10F4B1A6873
:100220007B689A4202D10D4ABB6813607B681A88CA
:10023000BB681A80074B1B687A6812881344BA6837
:1002400004490968521A92B25A801437BD465DF8C3
:10025000047B7047FC310020003200200432002073
:1002600080B483B000AF1A4B033323F003031A4664
:10027000184B1A60174B1B687B607B684FF4205249
:100280001A807B6800225A807B6800221A71114B09
:100290001B6803F52053104A13600F4B1B680122A3
:1002A0001A710D4B1B684FF420521A800A4B1B68C1
:1002B0004FF420525A80094B01221A70054B1B68DB
:1002C000074A13600C37BD465DF8047B704700BFDA
:1002D000E8090020FC310020003200200832002014
:1002E0000432002080B584B000AF78607B68002BBA
:1002F00000D11FE0114B1B687A689A420F4B1B68B4
:100300007A689A4204D30E4B1B687A689A4200D3EB
:1003100010E07B68083BFB60FB6800221A71094B08
:100320001B68FA689A4202D2064AFB681360F868B2
:10033000FFF738FF1037BD4680BD00BFFC310020FD
:10034000003200200432002080B487B000AF786013
:100350000B467B807B8803339BB223F003037B80B7
:100360007B880B2B01D80C237B807B88B3F5205F27
:1003700001D900239AE0504B1B687A689A424E4B91
:100380001B687A689A4204D34C4B1B687A689A427D
:1003900001D37B688AE07B68083B7B617B69464AC6
:1003A00012689B1A7B827B691A887B8AD31A9BB25C
:1003B000083B3B827A883B8A9A4201D9002375E048
:1003C0007A883B8A9A4201D17B686FE03A4B1B687E
:1003D0007A6912881344FB60FB681B79002B32D1C9
:1003E000FB681B887B817A8A7B8813449BB2083325
:1003F0003B81334B1A68FB689A4205D12E4B1A6831
:100400003B8913442E4A13602B4B1A683B891344D3
:10041000FB60FB6800221A71FB687A891A80FB680E
:100420007A8A5A807B693A891A80FB681B88B3F5FF
:10043000205F07D0204B1B68FA68128813443A8962
:100440005A8032E031E07B8803F114023B8A9A4201
:100450002BD87A8A7B8813449BB208333B81164B96
:100460001A683B891344FB60154B1B68FA689A4273
:1004700002D2134AFB681360FB6800221A717B6981
:100480001A88FB681A80FB687A8A5A807B693A89E5
:100490001A80FB681B88B3F5205F06D0064B1B68EB
:1004A000FA68128813443A895A807B6818461C37C8
:1004B000BD465DF8047B7047FC310020003200200F
:1004C0000432002080B487B000AF0346FB80FB8875
:1004D000002B01D100238FE0FB8803339BB223F074
:1004E0000303FB80FB880B2B01D80C23FB80FB88CC
:1004F000B3F5205F01D900237EE0424B1B681A460A
:10050000414B1B68D31AFB826FE03F4B1A68FB8A92
:1005100013443B613B691B79002B60D13B691B880D
:100520001A46FB8AD31AA3F10802FB889A4256D3D3
:100530003B691B881A46FB8AD31AA3F10802FB8881
:1005400014339A4227D3FA8AFB8813449BB20833A8
:10055000FB812D4B1A68FB891344BB60BB680022EA
:100560001A713B691A88BB681A80BB68FA8A5A807C
:100570003B69FA891A803B6901221A71BB681B88A2
:10058000B3F5205F0AD0204B1B68BA681288134469
:10059000FA895A8002E03B6901221A71194B1B68E3
:1005A0003A699A4218D107E0174B1B68154A12683E
:1005B00012881344134A1360124B1B681B79002BDB
:1005C00005D0104B1A68114B1B689A42ECD10D4BA9
:1005D0001A680E4B1B689A423B6908330CE00A4BC1
:1005E0001A68FB8A13441B88FB82FA8AFB88C3F5CE
:1005F00020539A4289DB002318461C37BD465DF81C
:10060000047B704704320020FC31002000320020BF
:1006100080B485B000AF7860114B1B68BB60EFF30E
:100620000583FB60FB68002B08D100BF0C4B1A68E8
:10063000BB68D21A7B689A42F8D30CE008E0094BF9
:100640001B6803F48033002B02D07B68013B7B6086
:100650007B68002BF3D11437BD465DF8047B7047EF
:100660008464002010E000E0B0B584B002AF4FF029
:1006700000037B604FF000033B6001F01FFE034668
:10068000002B54D0072300930020002103220D23C8
:1006900001F02EFE9FED340ADFED340A01F098FEE2
:1006A00001F048FFB0EE407ADFED317A67EE277A4D
:1006B000C7ED007A386812F0FBFB02460B4643ECAC
:1006C000102B9FED211B10F027FF53EC102B104631
:1006D00019461FA3D3E9002312F03EFC02460B4645
:1006E00014461D46386812F0E3FB02460B461046DE
:1006F000194619A3D3E9002312F02EFC02460B463B
:100700002046294612F076FA02460B461046194654
:1007100013A3D3E9002312F06BFA02460B461046EE
:10072000194612F0FBFE03467B607B6803E011482C
:1007300013F00EFB104B07EE903AB0EE670A083745
:10074000BD46B0BDAFF300800000000000000040D7
:10075000DE718A8EE4F27F3F1C7C61325530DE3FD1
:100760000C022B8716194F40CDCC4C3D9A99993EDF
:1007700000007A444CA201080000FAC380B584B09E
:1007800000AF0346FB800DF057FFF860FB68002BBD
:1007900015D0FB88F8680D491A460DF05DFE03463A
:1007A000FB7297F90B30002B05D1F868084900223D
:1007B0000DF000FF06E0074813F0CAFA02E0064811
:1007C00013F0C6FA1037BD4680BD00BF18A6010859
:1007D000DD0700086CA2010880A2010880B5B6B050
:1007E00000AFF860B9607A603B6007F1100318460B
:1007F0000021C82213F05AFA7B685B6807F11002E7
:100800001046194613F00EFB78680BF0BFF9D83785
:10081000BD4680BD80B58AB000AFF8600846394655
:1008200081E80C0003467B810DF006FF38623B6ACD
:10083000002B46D03B781A067B781B041A43BB7802
:100840001B021343FA78134318460BF0AFFB034621
:100850007B613B799BB207F11402386A11461A4654
:100860000DF05AFE0346FB7797F91F30002B28D175
:1008700000237B6222E00020402103220AF0BAFF1D
:10088000B86107F0E9F90346002B01D008F0BAF986
:10089000BB69002B0CD07B89B869F9681A460BF04C
:1008A00013FB386AB9690DF0F1FCB8690BF06EF909
:1008B0000F20FFF7ADFE7B6A01337B627B6A072B5B
:1008C000D9DD1420FFF7A4FE386A0DF085FE283725
:1008D000BD4680BD90B5ADF5317D40AF00200CF038
:1008E000CDFC0CF061FF87ED6F0A07F11C03DD4AB8
:1008F0001068186012791A7107F11403DA4A106847
:10090000186012791A7107F10C03D84A1068186040
:1009100012791A713B1DD64A1068186012791A7143
:1009200007F10C0007F114013A1D07F11C030DF04B
:100930008FF8002001210DF03BFA022001210DF07B
:1009400037FA09F051FB07F10C0407F11402391DC5
:100950006B4603C918600433197007F11C0102AB20
:1009600003C918600433197094E803000CCA08F036
:10097000A3F807F11C031B799BB21BB21846FFF7C3
:10098000FDFE0AF055FE0346C7F8B83107F5D673E9
:1009900018460AF0D9FE4FF4E170FFF739FE07F16F
:1009A000A8030220194606F005F94FF4FA70FFF784
:1009B0002FFE07F12403002019460A220DF0D8F873
:1009C00007F1A80400233E93694604F10C03F522C5
:1009D0000846194613F0D0F894E80E00062006F0F9
:1009E00083FBF0EE407AB0EE670A06F047FCF0EECB
:1009F000407A07F1A403C3ED007A07F1A4031A7843
:100A000007F124035A7007F1A4035A7807F124036D
:100A10009A7007F1A4039A7807F12403DA7007F1BA
:100A2000A403DA7807F124031A7107F1A80400235C
:100A30003E93694604F10C03F5220846194613F06B
:100A40009BF894E80E00082006F04EFBF0EE407A8A
:100A5000B0EE670A06F012FCF0EE407A07F1A4034C
:100A6000C3ED007A07F1240330225A7107F1A40381
:100A70001A7807F124039A7107F1A4035A7807F151
:100A80002403DA7107F1A4039A7807F124031A7298
:100A900007F1A403DA7807F124035A7207F1A804D6
:100AA00000233E93694604F10C03F52208461946DB
:100AB00013F062F894E80E00002006F015FBF0EE4B
:100AC000407A07F1A403C3ED007A07F1A4031A7872
:100AD00007F124039A7207F1A4035A7807F124035B
:100AE000DA7207F1A4039A7807F124031A7307F165
:100AF000A403DA7807F124035A7307F1A403D7F8A3
:100B0000BC211A6007F1A4031A7807F124039A7331
:100B100007F1A4035A7807F12403DA7307F1A40359
:100B20009A7807F124031A7407F1A403DA7807F11D
:100B300024035A74D7F8AC31184612F0A7F90246CC
:100B40000B46104619464FF000024A4B12F02EFB9E
:100B500002460B461046194612F0E0FC024607F129
:100B6000A4031A6007F1A4031A7807F124039A7406
:100B700007F1A4035A7807F12403DA7407F1A403F8
:100B80009A7807F124031A7507F1A403DA7807F1BC
:100B900024035A75D7F8B431184612F067F90246A3
:100BA0000B46104619464FF00002324B12F0FEFA87
:100BB00002460B461046194612F0B0FC024607F1F9
:100BC000A4031A6007F1A4031A7807F124039A75A5
:100BD00007F1A4035A7807F12403DA7507F1A40397
:100BE0009A7807F124031A7607F1A403DA7807F15B
:100BF00024035A76204B1B78DAB207F124039A7645
:100C00001E4B1B78DAB207F12403DA761C4B1B78F3
:100C1000DAB207F124031A771A4B1B78DAB207F11C
:100C200024035A77184B1B78DAB207F124039A771A
:100C3000164B1B78DAB207F12403DA77144B1B78D2
:100C4000DAB207F1240383F82020124B1B78DAB2C2
:100C500007F1240383F821200F4B1B78DBB2EB2B29
:100C600025D11BE0B0A20108B8A20108C0A201086A
:100C7000C8A2010800005940194002401A40024031
:100C80001B4002401C4002401D4002401E400240EA
:100C90001F40024020400240004F02400CF036FE50
:100CA00003461A4607F1240383F8222004E007F1E3
:100CB0002403012283F82220284B1A7807F1240309
:100CC00083F8232007F1A80393F8FD2007F12403FC
:100CD00083F82420FFF7C8FCF0EE407A07F1A40364
:100CE000C3ED007A07F1A4031A7807F1240383F80F
:100CF000252007F1A4035A7807F1240383F826205E
:100D000007F1A4039A7807F1240383F8272007F159
:100D1000A403DA7807F1240383F8282007F12402DA
:100D200007F11C0310463C210CCBFFF773FD02209A
:100D300000210DF03DF8C820FFF76AFC00200021DB
:100D40000DF036F8064B1B680648194613F000F8FC
:100D500008F066FC07F5E277BD4690BD14650020FB
:100D60008464002094A2010880B58EB004AF78603E
:100D7000354A07F120031068186012791A71324A57
:100D800007F118031068186012791A712F4A07F1D9
:100D900010031068186012791A712D4A07F10803C0
:100DA0001068186012791A7107F1080007F1100134
:100DB00007F1180207F120030CF04AFE022001217E
:100DC0000CF0F6FF09F010F96B4607F1080292E803
:100DD000030018600433197002AB07F1200292E897
:100DE000030018600433197007F1080393E8030047
:100DF00007F110030CCB07F05FFE97F824309BB28D
:100E00001BB21846FFF7BAFC002001210CF0D0FFFE
:100E10004FF46170FFF7FCFB786813F0A7F8034606
:100E20009BB27868194607F120030CCBFFF7F2FC60
:100E3000002000210CF0BCFF022000210CF0B8FFC4
:100E40002837BD4680BD00BFB0A20108B8A2010886
:100E5000D0A2010880B400AF094B00221A70094BE0
:100E600000221A70084B00221A70084B00221A60E8
:100E7000074B00221A70BD465DF8047B704700BF27
:100E8000656500205C6500206665002060650020C7
:100E90006465002080B582B000AF786039600C4B8B
:100EA0001B785B010B4A13441846796813F000F86D
:100EB000074B1B781946084A3B6842F82130044B1F
:100EC0001B780133DAB2024B1A700837BD4680BD79
:100ED000646500200C320020CC35002080B483B043
:100EE00000AF7860034A7B6813600C37BD465DF83D
:100EF000047B70474436002080B584B000AF0346C1
:100F0000FB71974B1B78022B4DD1FB79413B032B97
:100F100044D801A252F823F0290F0008310F00082D
:100F2000390F0008750F0008012000F095F936E030
:100F3000022000F091F932E08A4B1A788A4B1B7834
:100F40009A4212D2874B1B780133DAB2854B1A7062
:100F5000864B1B681B209847844B1B685B20984777
:100F6000824B1B684320984719E0804B1B68072081
:100F7000984714E07B4B1B78002B0AD0794B1B78E9
:100F8000013BDAB2774B1A70784B1B680820984700
:100F900005E0764B1B680720984700E000BF704BC8
:100FA00000221A7002E16E4B1B78012B0AD1FB79EB
:100FB0005B2B03D16A4B02221A70F7E0684B0022C8
:100FC0001A7002E0664B00221A70FB791F2B54D96D
:100FD000FB797E2B51D8634B1A78634B1B789A426E
:100FE00015D1624B1B68FA79104698475D4B1B7808
:100FF0005A1CD1B25B4A117019465D4AFB795354B1
:10100000594B1B780133DAB2574B1A7034E0564B08
:101010001B780133DAB2544B1A70534B1B78FB73B5
:1010200009E0FB7BFA7B013A5149895C504AD15473
:10103000FB7B013BFB734B4B1B78FA7B9A42F0D84E
:10104000484B1B785A1CD1B2464A11701946484A7F
:10105000FB79535400F0B4F8424B1B78FB7306E065
:10106000424B1B6808209847FB7B0133FB733E4BC8
:101070001B78FA7B9A42F3D398E0FB790D2B20D1B1
:101080003A4B1B680D209847384B1B680A2098473D
:10109000354B1B785A1CD1B2334A11701A46344B67
:1010A000002199542F4B1B780133DAB22D4B1A7063
:1010B00000F006F92C4B00221A702A4B00221A70FD
:1010C00074E0FB79082B68D1264B1B78002B5FD08E
:1010D000244B1A78244B1B789A4218D1234B1B6857
:1010E00008209847214B1B68202098471F4B1B68FE
:1010F000082098471C4B1B78013BDAB21A4B1A7038
:10110000184B1B78013BDAB2164B1A704EE0164BA7
:101110001B78013BDAB2144B1A70124B1B78013B5F
:10112000DAB2104B1A700F4B1B78FB7309E0FB7B94
:10113000FA7B01320E49895C0D4AD154FB7B0133A5
:10114000FB73094B1B78FA7B9A42F0D300F038F816
:10115000064B1B6820209847024B1B78FB7310E05E
:1011600065650020666500205C650020443600202F
:10117000686500200F4B1B6808209847FB7B0133F4
:10118000FB73FA7B0C4B1B7801339A42F2DB0DE0C8
:10119000084B1B680720984708E0FB797F2B05D098
:1011A000FB791B2B02D1054B01221A701037BD466B
:1011B00080BD00BF443600205C65002065650020CE
:1011C00080B584B000AF0A2012F002FA03467B60BB
:1011D0001C4B7B6007E01C4B1A687B68591C7960CC
:1011E0001B78184690477B681B78002BF3D1174B70
:1011F0007B6007E0144B1A687B68591C79601B7888
:10120000184690477B681B78002BF3D100F0C2F89A
:101210000F4B1B78FB720F4BFB6007E00A4B1A6801
:10122000FB68591CF9601B7818469047FB7A5A1ED8
:10123000FA72002BF2D1786812F0D2F91037BD465D
:1012400080BD00BFD8A2010844360020E0A20108FA
:101250005C6500206865002080B582B000AF034661
:10126000FB71FB79012B0DD0022B1DD0002B1CD163
:101270000F4B1B78002B04D00E480D4912F018FEBE
:1012800013E012E00A480B4912F012FE084812F06F
:101290006DFE0346DAB2084B1A70074B1A78074BFB
:1012A0001A70FFF78DFF00E000BF0837BD4680BD14
:1012B00068650020A86500205C6500206665002048
:1012C00080B582B000AF0023BB710020FFF7C4FFE0
:1012D00002E0BB790133BB71BB79204AD35C202B80
:1012E00004D0BB791D4AD35C002BF2D1BB79002B13
:1012F00002D100F04FF82DE00023FB7121E0FB79D3
:101300005B01174A1344184612F030FE0246BB79BF
:101310009A4213D1FB795B01114A1A44BB791046FA
:101320000E491A4612F050FE0346002B06D1FB79F7
:101330000C4A52F823300C4A13600BE0FB7901335E
:10134000FB710A4B1B78FA799A42D8D300F040F827
:1013500000F020F80837BD4680BD00BF686500205A
:101360000C320020CC350020606500206465002030
:1013700080B500AF064B1B68002B07D0044B1B68E1
:101380009847034B00221A6000F004F880BD00BFAC
:101390006065002080B582B000AF0B4B7B6007E03A
:1013A0000A4B1A687B68591C79601B78184690476D
:1013B0007B681B78002B03D07B681B78002BEFD158
:1013C0000837BD4680BD00BF000000204436002025
:1013D00080B582B000AF2F4B7B6007E02E4B1A68C0
:1013E0007B68591C79601B78184690477B681B788E
:1013F000002B03D07B681B78002BEFD1274B7B6041
:1014000007E0254B1A687B68591C79601B781846E1
:1014100090477B681B78002B03D07B681B78002BE0
:10142000EFD11F4B7B6007E01B4B1A687B68591C90
:1014300079601B78184690477B681B78002B03D097
:101440007B681B78202BEFD1134B1B685D209847DE
:10145000114B1B6820209847124B7B6007E00E4B16
:101460001A687B68591C79601B78184690477B681E
:101470001B78002B03D07B681B78202BEFD1064B09
:101480001B680D209847044B1B680A2098470837B3
:10149000BD4680BD1000002044360020180000200A
:1014A000686500203000002080B485B000AF03469E
:1014B000FB710023FB7302E0FB7B0133FB73FB7BBF
:1014C0001B4AD35C002B04D0FB7B194AD35C202B36
:1014D000F2D00023BB731EE002E0FB7B0133FB7301
:1014E000FB7B134AD35C002B04D0FB7B104AD35CFC
:1014F000202BF2D102E0FB7B0133FB73FB7B0C4A18
:10150000D35C002B04D0FB7B094AD35C202BF2D0A8
:10151000BB7B0133BB73BA7BFB799A42DCD3FB7B89
:10152000034A134418461437BD465DF8047B7047E0
:101530006865002080B584B000AF0346FB71FB797D
:101540001846FFF7B1FF024607F10C031046194693
:101550000A2213F0E9F8034618461037BD4680BD4D
:1015600080B584B000AF78607B681B7C072B00F2ED
:101570008B8001A252F823F099150008FB15000892
:10158000151600082F1600084D16000889160008C9
:10159000891600086B1600080023FB73454B1A6878
:1015A0007B689A4205D1434B1B68DB68414A136054
:1015B00019E0404B1B68404A136010E03E4B1B682B
:1015C000DA687B689A4205D13B4B1B687A68D2681F
:1015D000DA6008E0384B1B68DB68374A1360364B2B
:1015E0001B68002BEAD17B680022DA600220796850
:1015F00002F0FEFE00237B604BE00023FB732F48CC
:10160000796800F0C5FA0320796802F0F1FE002342
:101610007B603EE00023FB732948796800F0B8FA4C
:101620000220796802F0E4FE00237B6031E07868F4
:1016300001210FF03FF80346FB7397F90F30002BA1
:1016400003D17B6805221A7423E022E07868012127
:101650000FF030F80346FB7397F90F30002B03D1DE
:101660007B6805221A7414E013E0786801210FF0FA
:1016700021F80346FB7397F90F30002B03D17B68E9
:1016800009221A7405E004E00023FB7300237B6049
:1016900000BF7B68002B06D097F90F30002B02D1DA
:1016A00078680FF039FBFB7B5BB218461037BD46FC
:1016B00080BD00BFF8650020F4650020F0650020C3
:1016C000E865002090B58DB002AF786039607B6826
:1016D0001B7C0A2B08D13148796800F059FA0220A6
:1016E000796802F085FE55E07B689B6D7B627B68C4
:1016F0005B6A3B627B68002B02D07B681B6800E062
:101700000023FB607B680433002B02D07B685B689E
:1017100000E000233B617B681B8BFB837B681B8C99
:10172000BB837B68D3F89030BB617B685B697B616E
:101730001B48796800F02CFA7B689B6F002B04D063
:101740007B689B6F184600F09FF87B685B6F002BEF
:1017500004D07B685B6F184600F096F80220796829
:1017600002F046FEBB69002B04D0BB6978696FF0BC
:10177000040198473B68002B0CD007F10C0207F1DD
:101780001004FB8B0093BB8B0193786A396A234664
:101790000FF0CEFC2C37BD4690BD00BFFC6500208D
:1017A000E865002080B485B000AF78607B685B6A34
:1017B0007A68128D1344FB607B68DB6A7A68128F4B
:1017C00040F2B4518A4202D87A68128F01E040F2A6
:1017D000B4521344FA68D31A002B08DB7B681A8DC5
:1017E0007B685A857B68DB6AFA68D31A15E07B68E8
:1017F0005A6A7B68DB6AD31A002B03DD7B68002200
:101800005A8509E07B68DB6A9AB27B685B6A9BB2A7
:10181000D31A9AB27B685A85002318461437BD46FE
:101820005DF8047B704700BF80B584B000AF78607E
:101830000B467B807B681A8D7B8813449AB27B6849
:101840001A857B681B8D40F66832934203D97B680A
:1018500040F668321A857868FFF7A4FF0346FB60FC
:10186000FB6840F2D92293420BDD7B6893F822306B
:1018700043F00203DAB27B6883F8222078680FF025
:101880004BFA1037BD4680BD80B584B000AF78609C
:101890000023FB730CE07B681B68BB60786800F07A
:1018A0000FF803461A46FB7B1344FB73BB687B604F
:1018B0007B68002BEFD1FB7B18461037BD4680BDFF
:1018C00080B584B000AF78600023FB737B68002B89
:1018D0000ED07B685B68002B06D07B685B6818467F
:1018E0000AF054F90346FB730420796802F080FD86
:1018F000FB7B18461037BD4680BD00BF80B584B065
:1019000000AFF860B9607A60FB707B68002B09D08B
:101910007B681B89B8681946FFF786FF78680AF06C
:1019200035F908E097F90330002B04D1B868FFF7C8
:1019300017FE034600E000235BB218461037BD4691
:1019400080BD00BF80B586B000AF0346FB717F232A
:10195000FB720023FB6000233B61184B1B687B611B
:101960001FE07B695B7CFA799A4217D37B695B7CC9
:10197000FA7A9A4212D3124B1A687B691B6BD21AFD
:10198000FB689A420AD30E4B1A687B691B6BD31A09
:10199000FB607B693B617B695B7CFB727B69DB681D
:1019A0007B617B69002BDCD13B69002B03D038695C
:1019B0000121FFF787FE1837BD4680BDE86500208E
:1019C000EC65002080B584B000AF00237B6000236D
:1019D000BB60124B1B68FB6012E0114B1A68FB687E
:1019E0001B6BD21A7B689A4207D30D4B1A68FB68AF
:1019F0001B6BD31A7B60FB68BB60FB68DB68FB601A
:101A0000FB68002BE9D1BB68002B03D0B86801212B
:101A1000FFF758FE1037BD4680BD00BFFC650020B3
:101A2000EC65002080B584B000AF0346FB71022056
:101A300002F0BCFCF860FB68002B10D1FFF7C2FF7E
:101A4000022002F0B3FCF860FB68002B07D1FB79A1
:101A50001846FFF777FF022002F0A8FCF860FB6849
:101A6000002B59D0F8680021A02212F01FF9FB6862
:101A700040225A74FB6840F66832A3F86E20FB6877
:101A80000022A3F87020FB6840F668321A85FB68D4
:101A900040F668325A85FB6800229A72FB68FF2282
:101AA000DA72FB684FF406721A87FB680622A3F805
:101AB0004820FB680022A3F84420FB680622A3F814
:101AC0004620FB684FF6FF72DA86FB680122A3F816
:101AD000522000F0B3F8B860FB68BA685A66FB6839
:101AE000BA689A65FB68BA68DA64FB68BA689A668D
:101AF0000C4B1A68FB681A63FB68002283F83420D9
:101B0000FB68094AC3F88420FB68084AC3F894209C
:101B1000FB68002283F89D20FB6818461037BD46FD
:101B200080BD00BFEC650020FD18000800DD6D00E1
:101B300080B582B000AF78607B681B7C002B24D01E
:101B40007B681B7C0A2B20D07B681B7C012B1CD064
:101B50007B68DB6F002B07D07B68DB6F18460AF0D1
:101B600015F87B680022DA677B685B6F1846FFF721
:101B70008BFE7B689B6F1846FFF786FE7B68002212
:101B80005A677B685A6F7B689A670837BD4680BD85
:101B900080B582B000AF786039607B681A683B68B6
:101BA0009A4205D17B681B68DA687B681A6019E085
:101BB0007B681B68204A136010E01F4B1B68DA68C3
:101BC0003B689A4205D11C4B1B683A68D268DA60C0
:101BD00008E0194B1B68DB68174A1360164B1B683B
:101BE000002BEAD13B680022DA603868FFF7A0FFDB
:101BF0003B681B7C0A2B16D03B681B7C012B12D048
:101C00003B6893F8223003F00103002B0BD03B68B4
:101C100093F8223043F00203DAB23B6883F82220C3
:101C200038680FF079F83B681B7C012B3B68002279
:101C30001A740837BD4680BDF465002080B400AF3B
:101C4000064B1A68064B1B681344044A1360034B87
:101C50001B681846BD465DF8047B70476C00002089
:101C6000EC65002080B584B000AF03463960FB808E
:101C700038680CF0F9FCF860FB68002B0DD0FB68AD
:101C80001B8D002B09D0FB681B8D283B7B817A893B
:101C9000FB88934228BF1346FB80FB881846103709
:101CA000BD4680BD80B483B000AF78600B46FB704A
:101CB0007B689B899BB203F40053002B14D000BFB8
:101CC0007B681B889BB203F08003002BF8D0FB7865
:101CD000DBB29AB27B689A8000BF7B681B889BB29C
:101CE00003F08003002BF8D00C37BD465DF8047B71
:101CF000704700BF80B59AB000AF134812F078F873
:101D0000124B00221A70124801214FF4E13207F001
:101D1000DDFC012001210CF04BF80E4812F068F8B0
:101D20003B1D0D484FF47A71002200F019F8074B63
:101D30001B7843F00203DAB2044B1A70074812F022
:101D400057F86837BD4680BD78A3010810650020AC
:101D50000010014094A30108E8A30108ECA30108C6
:101D600080B586B000AFF8607B600B467B81134680
:101D70007B720023FB7500233B617B6800221A7095
:101D80001E48F96807F07EFD1C481D4907F07AFDE2
:101D90007B897868194600F095F80346FB75FB7D52
:101DA000002B22D07B7A002B15D07868154912F0D1
:101DB000E3FA38613B69002B03D0134812F018F89E
:101DC00016E0124812F014F8786811F0C1FF0A20EA
:101DD00011F0D2FF0CE00E4812F00AF8786811F00A
:101DE000B7FF0A2011F0C8FF02E00A4812F000F81D
:101DF000FB7D18461837BD4680BD00BF001001406E
:101E00002CA4010830A4010838A4010854A4010836
:101E10007CA4010898A4010880B586B000AFF860E2
:101E20007B600B467B8113467B720023FB7500238E
:101E30003B613B6A00221A701E48F96807F022FDD8
:101E40001C481D4907F01EFD7B89386A194600F0C1
:101E500039F80346FB75FB7D002B22D07B7A002BE3
:101E600015D0386A796812F087FA38613B69002B1F
:101E700003D0FF23FB75FB7D17E0104811F0B8FF7E
:101E8000386A11F065FF0A2011F076FF0CE00B486C
:101E900011F0AEFF386A11F05BFF0A2011F06CFF01
:101EA00002E0074811F0A4FFFB7D18461837BD4635
:101EB00080BD00BF001001402CA40108ACA40108A3
:101EC000C8A4010880B586B000AF78600B467B805F
:101ED0000023FB7500233B617B6800221A707A881F
:101EE0001B4B1B6813443B611CE01A4807F0B0FC15
:101EF0000346002B16D1FB7D0133FB75154807F017
:101F00006DFC0346FB73FB7B13481946FFF7CAFEC3
:101F10007B685A1C7A60FA7B1A707A880C4B1B68B3
:101F200013443B613A690A4B1B689A4202D9FB7D14
:101F3000622BDAD9FB7D002B05D07B6800221A705A
:101F4000FB7D0133FB75FB7D18461837BD4680BD10
:101F500084640020001001400014014080B5A6B048
:101F600002AF78603960344A07F10C0307CA03C333
:101F70001A8007F1160300221A80023300221A8009
:101F8000023300221A80023300221A800233002218
:101F90001A80023300221A80023300221A80023390
:101FA00000221A80023300221A80023300221A8093
:101FB0000233224811F01CFF07F12C03204840F6A1
:101FC000C4110122FFF7CCFE07F10C031846796813
:101FD00011F04EFF07F10C03184611F0C7FF03463E
:101FE0001A4607F10C03134416491A460B461B8880
:101FF000138007F10C0207F12C03009310464FF4F5
:10200000FA610122104BFFF707FF1048396807F00B
:1020100039FC0E481A21FFF745FE0C480D21FFF749
:1020200041FE07F12C0318464FF47A61FFF74AFF8F
:102030009037BD4680BD00BF0CA50108DCA4010897
:10204000F4A4010800A5010804A50108001001403E
:1020500080B59EB002AF78600F4B1B7823F004036D
:10206000DAB20D4B1A707B689AB207F10C03009339
:102070000A48114601220A4BFFF7CEFE0346FF2B0A
:1020800006D1054B1B7843F00403DAB2024B1A70F9
:102090007037BD4680BD00BF106500202CA501082B
:1020A00038A5010880B400AF064B1B7803F0040389
:1020B000002B14BF01230023DBB21846BD465DF898
:1020C000047B70471065002080B500AF064B5B694C
:1020D00003F00103002B05D0034B01225A610120BC
:1020E000AFF3008080BD00BF003C014080B500AF71
:1020F000064B5B6903F00203002B05D0034B022261
:102100005A610220AFF3008080BD00BF003C014057
:1021100080B500AF064B5B6903F00403002B05D0CC
:10212000034B04225A610420AFF3008080BD00BF3E
:10213000003C014080B500AF064B5B6903F008032B
:10214000002B05D0034B08225A610820AFF3008012
:1021500080BD00BF003C014080B500AF064B5B690D
:1021600003F01003002B05D0034B10225A611020FE
:10217000AFF3008080BD00BF003C014080B500AFE0
:10218000204B5B6903F02003002B05D01D4B202260
:102190005A612020AFF300801A4B5B6903F04003C3
:1021A000002B05D0174B40225A614020AFF300802E
:1021B000144B5B6903F08003002B05D0114B802288
:1021C0005A618020AFF300800E4B5B6903F480738B
:1021D000002B07D00B4B4FF480725A614FF4807084
:1021E000AFF30080074B5B6903F40073002B07D04B
:1021F000044B4FF400725A614FF40070AFF300804B
:1022000080BD00BF003C014080B500AF2A4B5B6938
:1022100003F48063002B07D0274B4FF480625A6190
:102220004FF48060AFF30080234B5B6903F40063DD
:10223000002B07D0204B4FF400625A614FF400602E
:10224000AFF300801C4B5B6903F48053002B07D075
:10225000194B4FF480525A614FF48050AFF3008015
:10226000154B5B6903F40053002B07D0124B4FF45E
:1022700000525A614FF40050AFF300800E4B5B697F
:1022800003F48043002B07D00B4B4FF480425A617C
:102290004FF48040AFF30080074B5B6903F40043C9
:1022A000002B07D0044B4FF400425A614FF400401A
:1022B000AFF3008080BD00BF003C014080B500AF9F
:1022C00009480CF035FC08480021084A09F094FE42
:1022D000054884210AF03CF90346002B01D0012374
:1022E00000E00023184680BD005C0040400D030064
:1022F00090B585B000AF0446084611461A462346FD
:10230000FB710346BB710B467B7113463B71002387
:10231000FB81FB795B039AB2BB79DB029BB213436F
:102320009AB27B79DB019BB213439AB23B79DB0013
:102330009BB213439AB297F820309BB213439AB2E0
:10234000FB8913439BB2FB81FB79002B06D0012B49
:1023500009D1194B4FF084421A6004E0164B4FF03C
:1023600083421A6000BFBB79032B1BD801A252F82D
:1023700023F000BF9D230008952300088D2300084B
:10238000852300080D4B0E4A1A600BE00B4B0D4ADB
:102390001A6007E0094B0C4A1A6003E0074B0B4A2E
:1023A0001A6000BFFB890020194600F03BF90123A9
:1023B00018461437BD4690BD68A3002060A30020D6
:1023C0000AD7A33E0AD7233E0AD7A33D0AD7233D07
:1023D00080B586B000AF87ED030AC7ED020A504A08
:1023E000FB681360D7ED027A9FED4E7AC7EE877ACD
:1023F000C7ED057AD7ED057A9FED4B7A67EE877AC0
:10240000FCEEE77AC7ED017ABB889BB207EE903A03
:10241000F8EE677A454BC3ED007A444BD3ED007A72
:102420009FED417AC7EE877A404BC3ED007A3F4B70
:102430001B68184610F03CFD02460B461046194634
:1024400033A3D3E9002310F0B1FE02460B46104639
:10245000194611F063F80246344B1A60334B1B687F
:10246000184610F025FD02460B4643EC102B0EF0EB
:10247000C7FF53EC102B1046194611F04FF80246D7
:102480002A4B1A60294B1B68184610F011FD0246B2
:102490000B46104619461EA3D3E9002310F05CFD3D
:1024A00002460B461046194611F038F802461F4BFB
:1024B0001A601E4BD3ED007AB3EE047A67EE877A8A
:1024C0001B4BC3ED007A194B93ED007A144BD3EDFF
:1024D000007A67EE277A17EE900A10F0E9FC0246C0
:1024E0000B460DA1D1E9000110F060FE02460B463B
:1024F0001046194610F0F2FF03467B827B8A0520C6
:10250000194600F08FF8012318461837BD4680BDE4
:102510002D431CEBE2361A3FF168E388B5F8A43F7F
:1025200064A3002000FEFF4620BCBE4CECA30020AC
:10253000F4A3002080B500AF032000F051F803465B
:1025400007EE903AB8EEE77A034BD3ED007A67EEE8
:10255000277AB0EE670A80BDF4A3002080B500AFF3
:10256000042000F03DF8034607EE903AB8EEE77A13
:10257000034BD3ED007A67EE277AB0EE670A80BD91
:10258000ECA300200000000080B582B000AF022064
:1025900000F026F80346FB80B7F90630DB10FB801D
:1025A000B7F90630184610F071FC02460B4610468B
:1025B000194609A3D3E9002310F0CEFC02460B46CE
:1025C0001046194610F0AAFF034607EE903AB0EE07
:1025D000670A0837BD4680BDFCA9F1D24D62703F45
:1025E00090B587B002AF0346FB71FA7907F10C048E
:1025F000022300930A488421234609F099FD0848E4
:1026000009F074FF3B7B1B029AB27B7B9BB21343A6
:10261000FB81FB891BB218461437BD4690BD00BF35
:10262000005C004090B587B002AF03460A46FB71DC
:102630001346BB80BB88FB73BB881B0ABB80BB886F
:10264000DBB23B73FB7B7B73FA7907F10C0402234B
:10265000009304488421234609F0E0FD1437BD4669
:1026600090BD00BF005C004080B500AF0C4A0C4B31
:102670001B6C43F080531364094A094B1B6B43F4F2
:1026800080231363012001F0FBFD012001F008FE0F
:1026900000BF044B5B6803F00803002BF9D080BD3A
:1026A0000038024000700040B0B588B002AF7860DA
:1026B00039607B685B68A04A13607B685C689E4BEE
:1026C0001B681B889BB2184609F062FC03461B0A74
:1026D0009BB203F00F039B002344984A1360964B70
:1026E0001B681B889BB2184609F052FC03461B0A64
:1026F0009BB203F00F039BB29B009BB25B429BB269
:102700009BB21BB27868194609F0D0F90346002B3A
:1027100003D17B681B89132B03D8786809F036FA3C
:102720009DE2854B1B6810331846396805F08AFC1A
:102730000346002B0FD1804B1B681C694FF0704083
:1027400009F04EFC03461C404FF0604009F048FC85
:1027500003469C4203D1786809F018FA7FE2774B70
:102760001B689B899BB2184609F012FC03461B0BA1
:102770009BB2BB72BB7A9BB21A469203D31A9B00E0
:102780009BB29BB21BB27868194609F08FF90346D9
:10279000002B03D0786809F0F9F960E2674B1C68F8
:1027A000664B1B681B889BB2184609F0F1FB034679
:1027B0002380624B1C68614B1B685B889BB2184688
:1027C00009F0E6FB034663805C4B1C685B4B1B68AF
:1027D0005B68184609F004FC034663606368584A66
:1027E0001360564B1C68554B1B689B68184609F0D4
:1027F000F7FB0346A360A368524A13604F4B1C6863
:102800004E4B1B68DB899BB2184609F0C1FB03469F
:10281000E3814A4B1B689B899BB2184609F0B8FBC1
:102820000346DBB203F03F03DAB2474B1A707B6812
:102830001A89454B1B7803F00303002B14BF0123B7
:102840000023DBB29BB213449AB2404B1A800023A0
:102850003B613F4B1B687B6132E07B691A8C374BD5
:102860001B681B889BB29A4225D17B691A8B334B1C
:102870001B685B889BB29A421DD17B695A682E4BBC
:102880001B68DB689A4216D17B691A682A4B1B6861
:102890001B699A420FD13B69002B0BD07B69DA6828
:1028A0003B69DA602A4B1A687B69DA60284A7B69DF
:1028B000136008E007E07B693B617B69DB687B6153
:1028C0007B69002BC9D17B69002B7AD1214B1B6816
:1028D0007B6127E07B691A8C184B1B681B889BB2B5
:1028E0009A421CD17B691A8B144B1B685B889BB284
:1028F0009A4214D17B695A680F4B1B68DB689A4275
:102900000DD17B691A680C4B1B681B699A4206D172
:10291000786900F083FA786809F038F99FE17B69FB
:10292000DB687B617B69002BD4D100233B610A4BC0
:102930001B68FB6042E000BF603600205C36002070
:1029400064360020683600206C3600206E36002089
:10295000E8650020FC650020F0650020FB68002B86
:102960000AD0FB681B68002B06D0FB681A689C4BDA
:102970001B681B699A421CD1FB681A8B994B1B6818
:102980005B889BB29A4214D13B69002B0AD0FB684A
:10299000DA683B69DA60944B1A68FB68DA60924A3D
:1029A000FB681360F86800F067F9786809F0EEF8E2
:1029B00055E1FB683B61FB68DB68FB60FB68002B53
:1029C000CCD17B69002B00F01D81884B00221A605E
:1029D0007B681A89854B9A817B685B68834A936020
:1029E000824A7B6853607F4B1B68804A1361804B2F
:1029F00000221A607F4B00221A707B69DB6F002B6C
:102A000029D07B69D3F88430002B0ED07B69D3F8B2
:102A100084407B695A697B69DB6F104679691A4685
:102A20000023A0470346FB7209E07B69DB6F0020AF
:102A300079691A460023FEF761FF0346FB7297F996
:102A40000B30002B03D17B690022DA6703E0786842
:102A500009F09CF803E1684A7B691360786900F02B
:102A600051FA0346FB7297F90B3013F1050F00F092
:102A7000A780604B1B7803F00803002B16D07B69FE
:102A8000D3F89030002B08D07B69D3F890307A6966
:102A9000526910466FF00501984758487969FFF769
:102AA00077F80220796901F0A3FC89E0514B1B788B
:102AB00003F01003002B08D050487969FFF768F83D
:102AC0000220796901F094FC7AE00023FB727B69B3
:102AD000B3F86C30002B14D07B69D3F88030002B16
:102AE0000DD07B69D3F880307A6951697A69B2F880
:102AF0006C200846796998470346FB7201E0002381
:102B0000FB723B4B1B68002B34D03D4B1B7803F012
:102B10000803002B08D0364B1B68354A1268527BDD
:102B200042F00102D2B25A737B69D3F88430002B91
:102B30000ED07B69D3F884407B695A692C4B1B68A3
:102B4000104679691A460023A0470346FB7209E044
:102B5000274B1B68002079691A460023FEF7CEFE3A
:102B60000346FB7297F90B30002B03D0204B1A68F9
:102B70007B69DA671F4B1B7803F02003002B19D009
:102B80007B69D3F88430002B0CD07B69D3F8844068
:102B90007B695B691846796900220023A0470346D8
:102BA000FB7207E00020796900220023FEF7A6FEF1
:102BB0000346FB72104B00221A6078690EF0ACF8E5
:102BC0000D4B00221A60094B5B68002B47D0074B66
:102BD0005B68184608F0DAFF044B00225A603EE0BA
:102BE000603600205C360020F0650020483600206A
:102BF000743600207036002000660020E865002052
:102C00006C360020174B1B689B899BB2184609F055
:102C1000BFF9034603F00403002B1DD1124B1868C3
:102C2000124B1B881A46124B1B68D118114B1B689C
:102C300003F110050F4B1B6803F10C04094B1B68D3
:102C40005B889AB2074B1B681B889BB2009201936A
:102C50002A4623460EF06CFA786808F097FF18377A
:102C6000BD46B0BD5C360020683600206E360020C0
:102C70006436002060360020B0B586B002AF7860C0
:102C80005F4B1B7803F01003002B1FD05D4B1B68BC
:102C9000581C5D4B1B881A465C4B1B68D1185C4B5B
:102CA0001B6803F110055A4B1B6803F10C04594BC8
:102CB0001B685B889AB2574B1B681B889BB20092BB
:102CC00001932A4623460EF033FA92E04C4B1B78D0
:102CD00003F00203002B00F08C807B685B7C1846BD
:102CE000FEF7A0FEF860FB68002B01D1FF2381E016
:102CF000474B1B681033002B03D0454B1B681B69E7
:102D000000E00023FA6813607B681A8BFB681A8363
:102D10003F4B1B680C33002B03D03D4B1B68DB681B
:102D200000E00023FA6853603A4B1B681B889AB294
:102D3000FB681A84FB6803221A74344B1B685A1C04
:102D4000FB685A62FB685A6AFB68DA62314B1B689F
:102D5000DB899AB2FB68A3F85C20FB68B3F85C20BF
:102D6000FB68A3F85420294B1B685A1EFB681A669F
:102D70007B685A69FB685A617B68DA69FB68DA61CB
:102D80007B681A8940F2991313409AB2FB681A8142
:102D9000214B1A68FB68DA601F4AFB681360F86809
:102DA00001F078F8FB681A8FFB6804331046194667
:102DB000FEF758FF03461A46FB681A870023009364
:102DC00001230193F8680021002212230DF088FCF2
:102DD0000346FB7297F90B30002B05D0F8680021F1
:102DE000FEF770FCFB7A05E0F8680DF095FF0346EE
:102DF00000E000235BB218461037BD46B0BD00BFEF
:102E00006C360020683600206E36002064360020C4
:102E1000603600205C360020E8650020B0B584B044
:102E200002AF7860304B1B7803F00403002B01D015
:102E3000002353E02C4B1B7803F00203002B30D00F
:102E40002A4B1A687B685B6AD31A002B33DB274B4B
:102E50001A687B685B6A7968098D0B44D31A002B6A
:102E600029DC234B1868234B1B881A461F4B1B6811
:102E7000D118214B1B6803F110051F4B1B6803F190
:102E80000C041E4B1B685B889AB21C4B1B681B888A
:102E90009BB2009201932A4623460EF049F9002383
:102EA0001CE0114B1B7803F00103002B03D0144BE3
:102EB0001A687B681A630F4B1B88002B0DD07B6848
:102EC00093F8223043F00203DAB27B6883F82220C1
:102ED00078680DF021FF034600E000235BB218463E
:102EE0000837BD46B0BD00BF6C36002064360020F8
:102EF000683600206E360020603600205C360020E8
:102F0000EC650020B0B586B002AF78600023FB739B
:102F10000023BB73A54B1B7803F00403002B36D0B2
:102F20007B681B7C022B08D17B689A6DA04B1B68C9
:102F30009A4215D10123FB7312E09E4B1A687B68FD
:102F40005B6AD31A002B0BDB9A4B1A687B685B6AAF
:102F50007968098D0B44D31A002B01DC0123FB7324
:102F6000FB7B002B11D0944B1B7843F00803DAB2A3
:102F7000914B1A707B6893F8223023F00103DAB288
:102F80007B6883F82220FA2310E300230EE3874BAB
:102F90001B7803F00203002B15D07B681B7C022BEF
:102FA00011D07B681B7C032B0DD07B6893F82230FB
:102FB00043F00203DAB27B6883F8222078680DF0D0
:102FC000ABFE0023F2E27D4B1A687B681A637B68D4
:102FD000002283F89D20786800F05CFF7B681B7CF2
:102FE000023B072B00F2E08201A252F823F000BF5F
:102FF00011300008CD310008093300083D330008C6
:103000005534000809330008ED340008793500080C
:10301000664B1B7803F01003002B00F0A080634B7D
:103020001B7803F00203002B00F099807B689B6FF4
:103030001B695B68184608F0D3FF03465A1C5C4BBB
:103040001B689A4240F08B807B68B3F86E30013386
:103050009AB27B68A3F86E20564B1B685A1C7B689B
:103060005A627B685A6A7B68DA62514B1A687B68DD
:10307000DA64534B1B68DB899AB27B68A3F85C2047
:103080004C4B1B685A1E7B681A667B6804221A74B4
:103090007B681A8F7B68043310461946FEF7E2FD01
:1030A00003461A467B681A877B681B8F1A46920074
:1030B00013445B009AB27B68A3F854207B68B3F892
:1030C0005230012B04D17B681B8F5B009BB201E067
:1030D0007B681B8F7A68A2F852307B68B3F8703037
:1030E000013B9AB27B68A3F870207B689B6FBB6042
:1030F000BB681A687B689A677B689B6F002B04D15A
:103100007B684FF6FF72DA8606E07B680022DA867B
:103110007B68002283F84A20B868FEF7D1FB7B6801
:10312000D3F88830002B0BD07B68D3F888307A68CE
:10313000526910467968002298470346BB7301E044
:103140000023BB737B6893F8223043F00203DAB2AA
:103150007B6883F8222078680DF0DEFD24E0134BB5
:103160001B7803F01003002B1ED0114B1868154B71
:103170001B881A460F4B1B68D118134B1B6803F1B1
:103180001005114B1B6803F10C040D4B1B685B8889
:103190009AB20B4B1B681B889BB2009201932A4684
:1031A00023460DF0C5FF00E2FFE100BF6C360020B2
:1031B000683600206436002070360020EC65002060
:1031C0005C3600206E36002060360020974B1B785E
:1031D00003F01003002B00F08580954B1A687B6884
:1031E000DB6CD31A013B002B5CDB914B1A687B68CC
:1031F0009B6DD31A002B55DC7B6804221A747B6804
:10320000DB69002B0AD07B68DB697A68526910465B
:103210007968002298470346BB7301E00023BB7323
:1032200097F90E30002B05D078680121FEF74AFA95
:10323000FB23BBE17B68B3F85230BB81786800F0B8
:10324000C7F97B68B3F86C30002B07D07B68B3F804
:103250006C30013B9AB27B68A3F86C20BB89012BD0
:1032600004D17B681B8F5B009BB201E07B681B8FE6
:103270007A68A2F852306F4B1B7803F02003002BC2
:103280000FD07B6893F8223043F00203DAB27B68F8
:1032900083F8222078680DF03FFD7B6807221A74BE
:1032A0001FE01EE0624B1868634B1B881A46634B95
:1032B0001B68D118624B1B6803F11005604B1B683B
:1032C00003F10C045F4B1B685B889AB25D4B1B6873
:1032D0001B889BB2009201932A4623460DF028FFDB
:1032E00011E010E0514B1B7803F00203002B0AD0D1
:1032F0007B685B6A5A1E514B1B689A4203D17868FF
:103300000DF08EFF51E150E1786800F061F9494B12
:103310001B7803F02003002B0FD07B6893F822303A
:1033200043F00203DAB27B6883F8222078680DF05C
:10333000F3FC7B6807221A7437E136E1786800F005
:1033400047F93C4B1B7803F02003002B5DD0374B33
:103350001B7803F01003002B47D07B689A6D344B29
:103360001B689A4241D17B6893F8223043F00203F4
:10337000DAB27B6883F8222078680DF0CDFC78689B
:10338000FEF7D6FB304B1A687B689A4205D12E4B6C
:103390001B68DB682C4A136019E02B4B1B682B4A17
:1033A000136010E0294B1B68DA687B689A4205D1EC
:1033B000264B1B687A68D268DA6008E0234B1B68EA
:1033C000DB68224A1360214B1B68002BEAD17B6823
:1033D0000022DA607B680A221A741D4B1A687B6827
:1033E000DA601B4A7B6813601FE07B6893F8223029
:1033F00043F00203DAB27B6883F8222078680DF08C
:103400008BFC7B6808221A740FE0084B1B7803F0D2
:103410001003002B09D07B689A6D054B1B689A42FC
:1034200003D17B6806221A74BFE0BEE06C36002030
:1034300068360020703600206E360020643600208A
:10344000603600205C360020E8650020F46500202E
:10345000FC650020786800F0BBF8574B1B7803F040
:103460002003002B41D07B6893F8223043F0020305
:10347000DAB27B6883F8222078680DF04DFC78681A
:10348000FEF756FB4D4B1A687B689A4205D14B4BB1
:103490001B68DB68494A136019E0484B1B68484ABF
:1034A000136010E0464B1B68DA687B689A4205D1CE
:1034B000434B1B687A68D268DA6008E0404B1B68AF
:1034C000DB683F4A13603E4B1B68002BEAD17B68E8
:1034D0000022DA607B680A221A743A4B1A687B6809
:1034E000DA60384A7B6813605FE05EE0786800F07D
:1034F0006FF8354B1B7803F01003002B3BD07B6833
:103500009A6D324B1B689A4235D17868FEF710FBF2
:103510002A4B1A687B689A4205D1284B1B68DB68E6
:10352000264A136019E0254B1B68254A136010E0FA
:10353000234B1B68DA687B689A4205D1204B1B68D5
:103540007A68D268DA6008E01D4B1B68DB681C4AA9
:1035500013601B4B1B68002BEAD17B680022DA60EA
:103560007B680A221A74174B1A687B68DA60154A5E
:103570007B68136019E018E0786800F029F8124BB6
:103580001B7803F01003002B0DD07B689A6D0F4B56
:103590001B689A4207D1084B1B7843F01003DAB23C
:1035A000054B1A7001E000E000BF00235BB2184633
:1035B0001037BD46B0BD00BF70360020E865002062
:1035C000F4650020FC6500206C3600206836002081
:1035D000F0B58BB000AF78600023BB61A54B1B78C2
:1035E00003F01003002B00F098827B68B3F85C3086
:1035F0001A467B685B6E13447B617B681A6E9E4B38
:103600001B68D31A002B1BDB7B681A6E9A4B1B6856
:103610009A4206D17B685A6E984B1B68D31A002BCE
:103620000EDB7B685A6E954B1B689A4225D1944BF2
:103630001B68DB899AB27B68B3F85C309A421CD96C
:103640008F4B1B68DB899AB27B68A3F85C208A4B9E
:103650001A687B681A66894B1A687B685A667B68A9
:10366000B3F85C30002B08D07B6893F89C30002BBB
:1036700003D07B68002283F89C20804B1A687B680B
:10368000DB6CD31A002B5BDC7B680022A3F86C2078
:103690007C4B1B88002B4AD17B685B6E7A68B2F842
:1036A0005C201A447B699A4241D17B68DB8E1BB255
:1036B000002B3CDB7B68DA6C704B1B689A4236D17E
:1036C0000123BB617B6893F8503001337A6892F82C
:1036D0005020934207DD7B6893F850300133DAB213
:1036E0007B6883F850207B6893F85030032B16D901
:1036F0007B68B3F852207B681B8F13449AB27B68B7
:10370000B3F852309A4212D97B68B3F852207B68E2
:103710001B8F13449AB27B68A3F8522007E07B68A2
:1037200093F85030032B02D178680DF0BBFDBB69D4
:10373000002B40F026817B68002283F8502062E154
:103740004E4B1A687B68DB6CD31A013B002BC0F22E
:1037500014814A4B1A687B689B6DD31A002B00F3C7
:103760000C817B6893F8223003F00403002B0ED009
:103770007B6893F8223023F00403DAB27B6883F885
:1037800022207B68B3F854207B68A3F852207B6822
:10379000002283F84A207B68B3F844301BB2DB1068
:1037A0009BB29AB27B68B3F846309BB213449BB28B
:1037B0009AB27B68A3F84820304B1B689AB27B68AA
:1037C000DB6C9BB2D31A9AB27B68A3F86C207B683F
:1037D000B3F86E207B68B3F86C3013449AB27B6800
:1037E000A3F86E207B68002283F85020234B1A68D0
:1037F0007B68DA647B681B7C032B3AD97B68B3F85F
:1038000052207B68B3F854309A4216D27B68B3F8E2
:1038100052207B681B8F13449AB27B68B3F85230F6
:103820009A4226D97B68B3F852207B681B8F1344D9
:103830009AB27B68A3F8522067E07B68B3F8522005
:103840007B681B8F19467B681B8F03FB01F379682C
:10385000B1F8521093FBF1F39BB213447B827B6867
:10386000B3F852307A8A9A4203D97B687A8AA3F8ED
:1038700052204AE06C360020643600206836002072
:103880005C3600206E3600207B689B6FFB607B6897
:103890009B6F1A687B689A67FB685B68184608F03C
:1038A000C5F97B68B3F86C30002B13D0FB681B693B
:1038B0009B899BB2184608F06BFB034603F001039B
:1038C000002B07D07B68B3F86C30013B9AB27B6861
:1038D000A3F86C20FB685B68184608F0A7F903465C
:1038E00019467B68B3F870208BB2D31A9AB27B6802
:1038F000A3F87020F868FDF7E3FF7B68B3F8703039
:10390000002B02D07B689B6F002B7B689B6F002B8A
:1039100022D07B689B6F1B695B68184608F060FBD0
:1039200004467B689B6F9B891D467B689B6F1B6968
:103930009B899BB2184608F02BFB034603F0030358
:10394000002B14BF01230023DBB22B44E2189B4B56
:103950001B68D31A002B97DD7B689B6F002B04D16B
:103960007B684FF6FF72DA8602E07B680022DA8617
:103970007B68002283F8342003E07B680022A3F8F0
:103980006C2040E07B685B6FFB607B685B6F1A6854
:103990007B685A67FB685B68184608F047F97B68E4
:1039A000B3F86C30002B13D0FB681B699B899BB26A
:1039B000184608F0EDFA034603F00103002B07D088
:1039C0007B68B3F86C30013B9AB27B68A3F86C203B
:1039D000FB685B68184608F029F9034619467B68BE
:1039E000B3F870208BB2D31A9AB27B68A3F8702018
:1039F000F868FDF765FF7B68B3F87030002B02D0E4
:103A00007B689B6F002B7B685B6F002B29D06B4B17
:103A10001C687B685B6F1B695B68184608F0E0FAFE
:103A200005467B685B6F9B891E467B685B6F1B69E5
:103A30009B899BB2184608F0ABFA034603F00303D8
:103A4000002B14BF01230023DBB233442B44E31AC1
:103A5000002B06DB594B1A687B689B6DD31A002B31
:103A600090DD7B68DB6B002B57D07B681A6C534B67
:103A70001B68D31A002B50DA514B1B689AB27B6833
:103A8000DB6B9BB2D31A9BB2FB83FA8B7B68B3F8D8
:103A900044301BB2DB109BB29BB2D31A9BB2FB83A8
:103AA0007B68B3F844309AB2FB8B13449BB29AB252
:103AB0007B68A3F84420B7F91E30002B03DAFB8B98
:103AC0005B429BB2FB83FA8B7B68B3F846301BB238
:103AD0009B109BB29BB2D31A9BB2FB837B68B3F85B
:103AE00046309AB2FB8B13449BB29AB27B68A3F820
:103AF00046207B68B3F844301BB2DB109BB29AB20D
:103B00007B68B3F846309BB213449BB29AB27B6891
:103B1000A3F848207B680022DA632A4B1B88002B1D
:103B200000F094817B685A6A274B1B68D31A013BCB
:103B3000002B75DB7B685A6A224B1B881946224B87
:103B40001B680B44D31A0133002B69DC7B685A6A6B
:103B50001D4B1B68D31A3B621C4B5B687B621B4B83
:103B60005B685B891A463B6A9A4231DA174B5B689D
:103B70001A893B6A9BB2D31A7B810EE07B6A5B8910
:103B80001A463B6A9B1A3B627B6A7A891A817B6A76
:103B900000225A817B6A1B687B627B6A5B891A46BA
:103BA0003B6A9A42EADB3B6A9BB25B429BB29BB2A6
:103BB0001BB2786A194607F079FF15E068360020D5
:103BC000EC6500206E360020643600204836002068
:103BD000994B5A683B6A9BB25B429BB29BB21BB249
:103BE0001046194607F062FF7B6A5B68924A936051
:103BF000914B9A89914B1B6899B27B685B6A9BB227
:103C0000CB1A9BB213449AB28B4B9A818A4B1B6995
:103C10007A68526A89490A60884A12685A6012E0D2
:103C2000864B1A687B685B6AD31A002B0BDA7B68B9
:103C300093F8223043F00203DAB27B6883F8222043
:103C400078680DF069F87D4B1A687B685B6AD31A57
:103C5000002BC0F2EB80794B1A687B685B6A79684D
:103C6000098D0B44D31A0133002B00F3DF807B68EE
:103C70005A6A724B1B689A4240F0D4806E4B9C8902
:103C80006D4B1B699B899BB2184608F081F903466E
:103C900003F00303002B14BF01230023DBB29BB20C
:103CA00023449AB2664B1A807B681A8D644B1B883A
:103CB0009A425ED2604B1B699B899BB2184608F002
:103CC00067F9034603F00103002B1ED05A4B1C6911
:103CD000594B1B699B899DB24FF6C07008F042F9A1
:103CE00003462B409DB2544B1B699B899BB21846DF
:103CF00008F04EF9034603F03E039BB2184608F065
:103D000031F903462B439BB2A3817B681A8D4A4B42
:103D10009A81494B1B699B899BB2184608F038F978
:103D2000034603F00203002B05D0434B9B89013B64
:103D30009AB2414B9A81404B5A683F4B9B8910463F
:103D4000194607F04FFE3C4B9C893B4B1B699B89F6
:103D50009BB2184608F01CF9034603F00303002B3E
:103D600014BF01230023DBB29BB223449AB2344B2D
:103D70001A80334B1B881A46304B1B681A447B68E9
:103D80005A627B681A8D2E4B1B88D31A9AB27B68B5
:103D90001A857868FDF706FD274B5B681B89002BA9
:103DA00006D0254B5B68274A1360234B00225A60DC
:103DB000214B1B699B899BB2184608F0E9F8034622
:103DC00003F00103002B06D01F4B1B7843F02003A8
:103DD000DAB21D4B1A707B6893F8223003F00103AE
:103DE000002B15D07B6893F8223023F00103DAB260
:103DF0007B6883F822207B6893F8223043F002032B
:103E0000DAB27B6883F8222078680CF085FF11E035
:103E10007B6893F8223043F00103DAB27B6883F8C1
:103E2000222007E078680CF035FF03E078680CF09A
:103E300031FF29E028E000BF48360020643600202A
:103E40006E3600207436002070360020104B1A6841
:103E50007B685B6AD31A002B0ADB0D4B1A687B6800
:103E60005B6A7968098D0B44D31A0133002B0BDD93
:103E70007B6893F8223043F00203DAB27B6883F860
:103E8000222078680CF048FF2C37BD46F0BD00BFFB
:103E90006436002080B586B000AF78603D4B1B686B
:103EA00014333B613B4B1B689B899BB2184608F05F
:103EB0006FF803461B0B9BB2052B68D9354B1B686B
:103EC0009B899BB2184608F063F803461B0B9BB214
:103ED000053B9BB29B00FB810023FB8251E0FB8AE8
:103EE0003A6913441B787B737B7B012B04D0022B34
:103EF00006D0002B4AD033E0FB8A0133FB8240E03E
:103F0000FB8A01333A6913441B78042B04D1FB8AE2
:103F10001A1DFB899A4200DD39E0FB8A02333A69B7
:103F200013441B781B0299B2FB8A03333A6913448A
:103F30001B789BB20A4613439BB27B817B8940F27C
:103F4000B452934204D87B89002B01D07A8901E0D6
:103F500040F2B4527B681A87FB8A0433FB8210E07C
:103F6000FB8A01333A6913441B78002B00D10EE021
:103F7000FB8A01333A6913441B789AB2FB8A1344D3
:103F8000FB82FA8AFB899A42A9D300E000BF183766
:103F9000BD4680BD5C36002080B582B000AF786041
:103FA0007B683A4A934208D11020012104F02CFD8D
:103FB0001020002104F028FD65E07B68344A93421C
:103FC0000AD14FF40030012104F000FD4FF400301D
:103FD000002104F0FBFC56E07B682E4A93420AD194
:103FE0004FF48020012104F0F1FC4FF480200021E7
:103FF00004F0ECFC47E07B68274A93420AD14FF477
:104000000020012104F0E2FC4FF40020002104F024
:10401000DDFC38E07B68214A93420AD14FF48010DE
:10402000012104F0D3FC4FF48010002104F0CEFCF9
:1040300029E07B681A4A934208D12020012104F02C
:10404000E3FC2020002104F0DFFC1CE07B68154A23
:1040500093420AD14FF08040012104F0B7FC4FF0A9
:104060008040002104F0B2FC0DE07B680E4A9342D0
:1040700009D14FF00040012104F0A8FC4FF00040AE
:10408000002104F0A3FC0837BD4680BD00100140AC
:104090000044004000480040004C004000500040F8
:1040A0000014014000780040007C004080B58AB0D8
:1040B00000AF7860396000237B6200233B620023FD
:1040C000FB610023BB617B681B8A9BB27B627B6ABE
:1040D00023F440537B623B68DB881A467B6A1343B8
:1040E0007B627B6A9AB27B681A827B689B899BB2EF
:1040F0007B627B6A23F4B05323F00C037B623B6842
:104100009A883B681B8913439AB23B685B891343C7
:104110009BB21A467B6A13437B627B6A9AB27B68C6
:104120009A817B689B8A9BB27B627B6A23F4407393
:104130007B623B689B891A467B6A13437B627B6A7E
:104140009AB27B689A8207F10803184604F0DEFAF7
:104150007B68314A934203D07B68304A934202D154
:104160007B693B6201E03B693B627B689B899BB258
:104170009BB21BB2002B0CDA3A6A13469B00134425
:104180009A001A443B681B685B00B2FBF3F3FB61C7
:104190000BE03A6A13469B0013449A001A443B68AA
:1041A0001B689B00B2FBF3F3FB61FB691C4AA2FB9B
:1041B00003235B091B017B627B6A1B09642202FBF0
:1041C00003F3FA69D31ABB617B689B899BB29BB2EC
:1041D0001BB2002B0CDABB69DB003233104AA2FBA6
:1041E00003235B0903F007037A6A13437B620BE046
:1041F000BB691B0132330A4AA2FB03235B0903F0AC
:104200000F037A6A13437B627B6A9AB27B681A81D6
:104210002837BD4680BD00BF00100140001401409A
:104220001F85EB5180B483B000AF78600B467B8074
:104230007B88C3F308039AB27B689A800C37BD462B
:104240005DF8047B704700BF80B485B000AF786034
:104250000B467B800023FB737B681B889AB27B88AC
:1042600013409BB2002B02D00123FB7301E000231B
:10427000FB73FB7B18461437BD465DF8047B704723
:1042800080B483B000AF0346FB71044AFB7913602E
:104290000C37BD465DF8047B704700BF20000E421E
:1042A00080B483B000AF0346FB71044AFB7913600E
:1042B0000C37BD465DF8047B704700BFA4000E427A
:1042C00080B400AF084A084B1B6843F00203136038
:1042D000064A064B1B6943F00403136130BFBD4619
:1042E0005DF8047B704700BF0070004000ED00E007
:1042F00080B483B000AF78600549054B1A687B68CD
:104300009B0013430B600C37BD465DF8047B704780
:104310000070004080B483B000AF00237B8002E0D7
:104320007B8801337B807B88082BF9D91B4B0333B7
:1043300023F003037B6000237B8027E07B88184AFF
:10434000002142F8231000233B8015E07B88144AAB
:1043500052F823207B681A607B8811497A6841F8FB
:1043600023207B880F4A32F813301A467B681344A7
:104370007B603B8801333B807B880B4A32F81330EB
:104380003A889A42E2D37B8801337B807B88082B72
:10439000D4D90C37BD465DF8047B70479C360020AD
:1043A00078360020D0A50108E4A5010880B485B0C6
:1043B00000AF0346FB71FB79082B01D900230EE007
:1043C000FB790A4A52F82330FB60FB68002B05D0CA
:1043D000FB79FA681268054941F82320FB68184602
:1043E0001437BD465DF8047B704700BF7836002067
:1043F00080B485B000AF03463960FB713B68002B89
:1044000000D10CE03B68FB60FB79074A52F823209F
:10441000FB681A60FB790449FA6841F823201437D5
:10442000BD465DF8047B70477836002080B584B0C7
:1044300000AF78600123FB73FB7B002B10D07B68FF
:104440005B6A1B7A002B03D0786800F07BF80AE0E7
:10445000786800F051F87B685B6A64221A7202E0A7
:10446000786800F06FF81037BD4680BD80B584B025
:1044700000AF786039607B6893F82F301A467B680C
:1044800093F830301B021A43184B1344184607F0B8
:104490008DFD0346184607F0A3FDF8607B685B6A54
:1044A0005B7A1A46FB681344FB60FB689BB243F0DF
:1044B000294343F47E03FB60FB680D4A934203D813
:1044C000FB6803F57E43FB60FB680A4A934203D90D
:1044D000FB68A3F57E43FB60F86807F067FD0246C2
:1044E0003B681A601037BD4680BD00BF0001FEA9C1
:1044F000FF00FEA9FFFEFEA990B587B004AF78606B
:104500007B6803F12B027B6803F12B047B685B6AF9
:1045100018467B685B6A19460090084B019302912C
:104520000123039378681146054A234606F062FE8C
:10453000034618460C37BD4690BD00BF10B20108B7
:1045400008B2010880B584B000AF78607B685B6A10
:10455000FB600023FB72786808F004FA0346002B26
:1045600002D0786808F0E4F97B6800225A607B6822
:1045700000229A607B680022DA60FB68002B11D170
:104580000A20FBF79FFFF860FB68002B01D1FF2397
:1045900029E0F86800210A220FF088FB7B68FA689E
:1045A0005A6211E0FB6800221A71FB680022DA806F
:1045B000FB6800225A71FB681846002104220FF0A4
:1045C00075FBFB6800221A72FB6878681946FFF7D2
:1045D0004DFFFB685B7A0133DAB2FB685A72786888
:1045E00000F006F8FB7A5BB218461037BD4680BD76
:1045F00080B485B000AF78607B685B6AFB60FB6865
:1046000001221A71FB6800225A717B6893F83030DE
:104610001A067B6893F82E301B041A437B6893F8C4
:104620002D301B0213437A6892F82F2013437A68C7
:10463000526A002A03D07A68526A527A00E0002255
:1046400099180C4BA3FB0123DA0813469B00134473
:104650005B00CA1A92B2FB68DA80FB685B7A0A2BAD
:1046600003D9FB684FF41672DA801437BD465DF843
:10467000047B7047CDCCCCCC80B586B000AF7860E1
:1046800039607B685B6A002B69D07B685B6A1B7949
:10469000002B64D07B6893F82B303B727B6893F8D7
:1046A0002C307B727B6893F82D30BB727B6893F85B
:1046B0002E30FB727B6893F82F303B737B6893F846
:1046C00030307B733A6807F114030E3210681860BB
:1046D0003A6807F110031832106818607B685B6A4B
:1046E0001B79012B09D07B685B6A1B79022B21D1D6
:1046F0007B685B6A5B79002B1CD17A697B685B6A9B
:104700001B689A4211D03A697B685B6A1B689A42BF
:104710000FD13B68083307F10802104619460622FC
:104720000FF0F8F90346002B03D07868FFF70AFF73
:1047300015E014E07A697B685B6A1B689A420ED1C7
:104740003B68083307F108021046194606220FF0AD
:10475000E1F90346002B02D07868FFF767FE1837AF
:10476000BD4680BD80B584B000AF78600B46FB705D
:10477000FB78FB73FB7B002B03D1786800F0FAF821
:1047800067E0FB7B012B03D1786800F001F960E062
:10479000FB7B022B03D1786800F008F959E0FB7B22
:1047A000032B03D1786800F00FF952E0FB7B042B58
:1047B00003D1786800F016F94BE0FB7B052B03D1A1
:1047C000786800F035F944E0FB7B062B03D178686C
:1047D00000F054F93DE0FB7B072B03D1786800F033
:1047E00073F936E0FB7B082B03D1786800F092F96F
:1047F0002FE0FB7B092B03D1786800F0B1F928E0AA
:10480000FB7B0A2B03D1786800F0D0F921E0FB7B19
:104810000B2B03D1786800F0D7F91AE0FB7B0C2B47
:1048200003D1786800F0DEF913E0FB7B0D2B03D198
:10483000786800F0E5F90CE0FB7B0E2B03D178687B
:1048400000F0ECF905E0FB7B0F2B02D1786800F05B
:104850000BFA786800F004F81037BD4680BD00BF41
:1048600080B58CB000AF786000237B770023BB62FB
:1048700000237B6200233B62012387F82C30002356
:104880003B777B68214A934208D1214A204B5B6CDD
:1048900043F4807353640023BB6118E07B681D4AB6
:1048A000934208D11A4A1A4B5B6C43F40073536469
:1048B0000023BB610BE07B68174A934207D1144A7F
:1048C000134B5B6C43F4806353640023BB61002390
:1048D0003B610023BB604FF48033FB604FF44073B7
:1048E0007B6107F10803184605F0F0FC07F1180397
:1048F0007868194605F096FC7B689B6843F00102D6
:104900007B689A603037BD4680BD00BF0020014003
:1049100000380240002101400022014080B584B0EF
:1049200000AF78600B46FB7040F6FF73FB60FB78CE
:10493000786819460122012305F0F0FC7B689B682A
:1049400043F080427B689A6006E0FB685A1EFA607A
:10495000002B01D1002308E07B681B6803F00203F1
:10496000002BF2D07B68DB6C9BB218461037BD463B
:1049700080BD00BF80B582B000AF786003480121E0
:1049800000F098F90837BD4680BD00BF0000024026
:1049900080B582B000AF78600348022100F08AF948
:1049A0000837BD4680BD00BF0000024080B582B020
:1049B00000AF78600348042100F07CF90837BD4659
:1049C00080BD00BF0000024080B582B000AF7860BB
:1049D0000348082100F06EF90837BD4680BD00BFCE
:1049E0000000024080B582B000AF78607B680B4A5F
:1049F000934203D07B680A4A934203D109481021AD
:104A000000F058F97B68084A934203D107484021D7
:104A100000F050F90837BD4680BD00BF00200140BE
:104A20000021014000000240002201400014024029
:104A300080B582B000AF78607B680B4A934203D0A8
:104A40007B680A4A934203D10948202100F032F9D9
:104A50007B68084A934203D10748802100F02AF975
:104A60000837BD4680BD00BF002001400021014045
:104A700000000240002201400014024080B582B0D4
:104A800000AF78607B680B4A934203D07B680A4A88
:104A9000934203D10948402100F00CF97B68084A91
:104AA000934204D107484FF4807100F003F90837AE
:104AB000BD4680BD002001400021014000000240B1
:104AC000002201400014024080B582B000AF78603F
:104AD0007B680B4A934203D07B680A4A934203D116
:104AE0000948802100F0E6F87B68084A934204D127
:104AF00007484FF4007100F0DDF80837BD4680BD6F
:104B0000002001400021014000000240002201403D
:104B10000014024080B582B000AF78607B680B4A19
:104B2000934203D07B680A4A934203D1094801218A
:104B300000F0C0F87B68084A934204D107484FF45C
:104B4000806100F0B7F80837BD4680BD0020014005
:104B500000210140000402400022014000140240F4
:104B600080B582B000AF78607B680B4A934203D077
:104B70007B680A4A934203D10948022100F09AF85F
:104B80007B68084A934203D10748082100F092F855
:104B90000837BD4680BD00BF002001400021014014
:104BA00000040240002201400014024080B582B09F
:104BB00000AF78600348012100F07CF80837BD465B
:104BC00080BD00BF0008024080B582B000AF7860B1
:104BD0000348022100F06EF80837BD4680BD00BFD3
:104BE0000008024080B582B000AF7860034804211D
:104BF00000F060F80837BD4680BD00BF00080240E5
:104C000080B582B000AF78600348082100F052F808
:104C10000837BD4680BD00BF0008024080B582B0A5
:104C200000AF78607B680B4A934203D07B680A4AE6
:104C3000934203D10948102100F03CF87B68084AF0
:104C4000934203D10748102100F034F80837BD46DD
:104C500080BD00BF0020014000210140000802404B
:104C6000002201400014024080B582B000AF78609D
:104C70007B680B4A934203D07B680A4A934204D173
:104C80000948202100F016F807E07B68074A9342A4
:104C900003D10748202100F00DF80837BD4680BD3C
:104CA0000020014000210140000802400022014094
:104CB0000014024080B584B002AF78600B467B8060
:104CC0007A88022300930123019378681146032216
:104CD00000230AF033FD0837BD4680BD80B582B0A1
:104CE00000AF78603960424801213A6804F0EEFC78
:104CF000404B01221A707B68002283F81C217868DF
:104D000001F0B0F93C4B1B6843F001033A4A1360D1
:104D1000394B1B6843F04003374A1360364B1B681E
:104D200043F00203344A1360334B1B6843F0200303
:104D3000314A1360304B1B6843F004032E4A136062
:104D40002D4B1B6843F008032B4A13602A4B1B684A
:104D500043F01003284A1360274B1B6843F080037D
:104D6000254A1360244B1B6843F48073224A136066
:104D7000214B1B6843F400731F4A13601E4B1B68D2
:104D800043F480631C4A13601B4B1B6843F40043CD
:104D9000194A1360184B1B6843F40063164A1360EA
:104DA000154B1B6843F48053134A1360124B1B6866
:104DB00043F40053104A13600F4B1B6843F48043C5
:104DC0000D4A13600C4B1B6843F400330A4A13600E
:104DD000094B1B6843F48033074A1360064B1B687A
:104DE00043F48023044A13600837BD4680BD00BFEA
:104DF000004800403C5E0020185D002080B582B075
:104E000000AF7860184804F023FD0346002B17D14B
:104E100010E0154804F0E2FC03467868194600F0FB
:104E200027F87B6893F8F230002B03D17B6893F866
:104E3000F23014E00C4804F00BFD0346002BE8D0E0
:104E40000A4B1B78002B05D07B68022283F8F220E6
:104E5000022304E07B68012283F8F2200123184634
:104E60000837BD4680BD00BF004800403C5E0020C2
:104E700090B583B000AF78600B46FB70786801F0A6
:104E8000C3F80346002B06D0786801F0EBF87B6886
:104E9000012283F8F220FB78242B16D15D4B0022EF
:104EA0001A705D4B00221A705C4B00221A705C4B2A
:104EB00000221A705A4B1B785A1CD1B2584A1170F2
:104EC0001946584AFB7853549BE0FB782C2B20D191
:104ED000514B1A78FB785340DAB24F4B1A70504B53
:104EE0001B785A1CD1B24E4A11701A464D4B002104
:104EF0009954786801F0D8F8786800F09FF8474B2B
:104F00001B780133DAB2454B1A70454B00221A70F8
:104F100077E0FB780A2B13D1404B00221A70424BEA
:104F20001B78032B6DD1414B1A78414B1B789A4269
:104F300067D1404B1B6843F480233E4A136060E016
:104F4000FB780D2B28D1364B1B785A1CD1B2344A32
:104F500011701A46334B00219954324B1B78184676
:104F600001F028F803461B01DCB22E4B5B78184693
:104F700001F020F803462344DAB22F4B1A702E4B6F
:104F80001A78254B1B789A4202D0786801F06AF8AB
:104F9000224B00221A7034E0FB782A2B1CD11D4BC7
:104FA00001221A701E4B1B785A1CD1B21C4A117078
:104FB0001A461C4B00219954786801F075F87868FE
:104FC00000F03CF8154B1B780133DAB2134B1A7022
:104FD000134B00221A7014E00E4B1B78002B06D1E5
:104FE0000D4B1A78FB785340DAB20B4B1A700C4B0E
:104FF0001B785A1CD1B20A4A11701946094AFB782B
:105000005354786800F0C8FE034618460C37BD4676
:1050100090BD00BF135D0020115D00200F5D0020DA
:10502000105D0020005D002070000020475E002021
:10503000485E0020145D0020125D0020B0B584B0F1
:1050400000AF7860A14B1B78002B34D1A048A14958
:1050500000F048FF0346002B03D09F4B00221A703C
:1050600023E09B489D4900F03DFF0346002B03D001
:10507000994B01221A7018E09548994900F032FFC7
:105080000346002B03D0944B02221A700DE0904887
:10509000944900F027FF0346002B03D08E4B0322D8
:1050A0001A7002E08C4B04221A708F4888490EF067
:1050B000FFFE00F05ABE0023FB732DE0FB7B7A68F5
:1050C0003C339B0013445B688748194600F00AFF95
:1050D0000346002B1DD0FB7B7A683C339B001344B6
:1050E0005B68DA79794B1B789A4212D1FB7B7A683C
:1050F0003C339B0013445B680833184674490EF038
:10510000D7FEFB7B7A683C339B0013445B6801222B
:10511000DA75FB7B0133FB737B6893F81C31FA7BF8
:105120009A42CBD36C4B1B785B01684A12781343CD
:10513000013B622B00F2838501A252F823F000BFED
:10514000E3560008ED520008E35300080B54000832
:10515000FF54000847550008255500083F5C00082B
:10516000815500083F5C00083F5C00083F5C000878
:105170003F5C00083F5C00083F5C00083F5C0008A3
:105180003F5C00083F5C00083F5C00083F5C000893
:105190003F5C00083F5C00083F5C00083F5C000883
:1051A0003F5C00083F5C00083F5C00083F5C000873
:1051B0003F5C00083F5C00083F5C00083F5C000863
:1051C0003F5C0008F75800083F5C00083F5C00089F
:1051D0003F5C00083F5C0008A1570008195900080F
:1051E0005D5800083F5C00083F5C00083F5C000819
:1051F0003F5C00083F5C00083F5C00083F5C000823
:105200003F5C00083F5C00083F5C00083F5C000812
:105210003F5C00083F5C00083F5C00083F5C000802
:105220003F5C00083F5C00083F5C00083F5C0008F2
:105230003F5C00083F5C00083F5C00083F5C0008E2
:105240003F5C0008A95B0008CD5B0008CD5B00084F
:10525000CD5B0008CD5B0008CD5B0008CD5B00088E
:10526000CD5B0008CD5B0008CD5B0008CD5B00087E
:10527000CD5B0008CD5B0008555A0008B7590008FF
:10528000F35A00083F5C00083F5C00083F5C0008E0
:105290003F5C00083F5C00083F5C00083F5C000882
:1052A0003F5C00083F5C00083F5C00083F5C000872
:1052B0003F5C00083F5C00083F5C00083F5C000862
:1052C0003F5C00083F5C00081B5C00080F5D00208D
:1052D000005D0020F8A501087000002000A601086C
:1052E00008A6010810A60108405E002007F1080387
:1052F0009D48194600F014FE0346BB73BB689B4AE9
:10530000A2FB03235B0907EE903AF8EE677A984B0D
:10531000C3ED007A964B93ED007ABA68934BA3FBEA
:1053200002135B09642101FB03F3D31A07EE903AE1
:10533000F8EE677ADFED8F6AC7EEA67A77EE277A06
:105340008B4BC3ED007ABB7B0133BB73BB7B864ABF
:105350001A4407F108031046194600F0E1FD034620
:10536000BB73BB6818460DF081FD04460D46BB7B40
:105370000A20194600F002FE034618460DF076FD9D
:1053800002460B46104619464FF000027A4B0DF0CC
:10539000E3FD02460B46204629460DF007FF024674
:1053A0000B4614461D46724B1B6818460DF080FDD7
:1053B00002460B461046194622462B460DF01AFCB3
:1053C00002460B46104619460EF0A8F80246684BF6
:1053D0001A606A4B1B6843F00103684A136000F0CF
:1053E0002FBC614B1B78532B07D1614BD3ED007A57
:1053F000F1EE677A5E4BC3ED007A604B1B6843F0B9
:1054000040035E4A136000F01BBC07F108035648D6
:10541000194600F085FD0346BB73BB68534AA2FBE7
:1054200003235B0907EE903AF8EE677A504BC3ED21
:10543000017A4F4B93ED017ABA684C4BA3FB0213F0
:105440005B09642101FB03F3D31A07EE903AF8EEEF
:10545000677ADFED486AC7EEA67A77EE277A444B83
:10546000C3ED017ABB7B0133BB73BB7B3E4A1A445D
:1054700007F108031046194600F052FD0346BB73BE
:10548000BB6818460DF0F2FC04460D46BB7B0A20B3
:10549000194600F073FD034618460DF0E7FC02467E
:1054A0000B46104619464FF00002334B0DF054FDE9
:1054B00002460B46204629460DF078FE02460B4672
:1054C00014461D462A4B5B6818460DF0F1FC024657
:1054D0000B461046194622462B460DF08BFB024622
:1054E0000B46104619460EF019F80246204B5A603A
:1054F000224B1B6843F00203204A1360A0E31A4BBF
:105500001B78572B07D11A4BD3ED017AF1EE677A4E
:10551000174BC3ED017A194B1B6843F02003174A60
:1055200013608DE307F108030F48194600F0F8FCFB
:10553000BB68DAB20E4B1A72104B1B6843F00403BF
:105540000E4A13607CE307F108030748194600F090
:10555000E7FCBB68DAB2064B5A72084B1B6843F093
:105560000803064A13606BE3005D00201F85EB51C2
:105570001C5D00200000704200004E40145D0020C1
:10558000AF4B1B782D2B58D107F10803AD481946B6
:1055900000F0C6FC0346BB73BB6807EE903AF8EE1A
:1055A000677AA94BC3ED037ABB7B0133BB73BB7B2B
:1055B0000133BB73BB7BA24A1A4407F108031046B0
:1055C000194600F0ADFC0346BB73BB6818460DF0EE
:1055D0004DFC04460D46BB7B0A20194600F0CEFC6C
:1055E000034618460DF042FC02460B46204629466B
:1055F0000DF0DCFD02460B4614461D46924BDB685F
:1056000018460DF055FC02460B4610461946224638
:105610002B460DF0EFFA02460B46104619460DF0E8
:105620007DFF0246884BDA60874BD3ED037AF1EEBB
:10563000677A854BC3ED037A4CE007F10803804895
:10564000194600F06DFC0346BB73BB6807EE903A49
:10565000F8EE677A7C4BC3ED037ABB7B0133BB73F7
:10566000BB7B774A1A4407F108031046194600F03D
:1056700057FC0346BB73BB6818460DF0F7FB0446A6
:105680000D46BB7B0A20194600F078FC03461846FD
:105690000DF0ECFB02460B46204629460DF086FD38
:1056A00002460B4614461D46674BDB6818460DF054
:1056B000FFFB02460B461046194622462B460DF0CC
:1056C00099FA02460B46104619460DF027FF02468E
:1056D0005D4BDA605D4B1B6843F010035B4A13605F
:1056E000AEE207F108035648194600F019FC0346DC
:1056F000BB73BA68564BA3FB02135B09642101FB21
:1057000003F3D31ADAB2504B9A74BB6807EE903A9F
:10571000F8EE677A9FED4F7A67EE877AFDEEE77ACB
:1057200017EE902A4A4B83FB02135911D317CB1A59
:10573000642101FB03F3D31ADAB2434B5A74BB68FA
:1057400007EE903AF8EE677A9FED437A67EE877A34
:10575000FDEEE77A17EE902A3D4B83FB02135911B9
:10576000D317CB1A642101FB03F3D31ADAB2364BF9
:105770001A74BB7B0133BB73BB7B314A1A4407F1FC
:1057800008031046194600F0CBFBBB68DAB22E4B7B
:10579000DA742E4B1B6843F080032C4A13604FE2EF
:1057A00007F108032648194600F0BAFB0346BB730D
:1057B000BB6807EE903AF8EE677A234BC3ED067AA2
:1057C000BB7B0133BB73BB7B1D4A1A4407F1080343
:1057D0001046194600F0A4FB0346BB73BB6807EEF6
:1057E000903AF8EE677A17EE900A0DF061FB0446E6
:1057F0000D46BB7B0A20194600F0C0FB0346184645
:105800000DF034FB02460B46204629460DF0CEFC37
:1058100002460B46104619460DF080FE07EE100AB0
:10582000094BD3ED067A77EE877A074BC3ED067AFC
:10583000064B1B6843F48073044A136000E200BF08
:10584000005D0020015D00201C5D0020145D002033
:105850001F85EB510AD7233C17B7D13807F108034E
:10586000CB48194600F05CFBBA68CA4BA3FB021395
:105870005B09642101FB03F3D31ADAB2C64B9A75B4
:10588000BB6807EE903AF8EE677A9FEDC47A67EE50
:10589000877AFDEEE77A17EE902ABE4B83FB021360
:1058A0005911D317CB1A642101FB03F3D31ADAB2CF
:1058B000B94B5A75BB6807EE903AF8EE677A9FEDE0
:1058C000B87A67EE877AFDEEE77A17EE902AB14B49
:1058D00083FB02135911D317CB1A642101FB03F385
:1058E000D31ADAB2AC4B1A75AE4B1B6843F4007393
:1058F000AC4A1360A4E1A64B1B78412B0CBF0123DB
:105900000023DBB21A46A44B1A77A64B1B6843F45C
:105910008063A44A136093E107F108039C48194689
:1059200000F0FEFA0346BB73BB6807EE903AF8EE50
:10593000677A994BC3ED087ABB7B0133BB73BB7BA2
:10594000934A1A4407F108031046194600F0E8FA92
:105950000346BB73BB6807EE903AF8EE677A17EE22
:10596000900A0DF0A5FA04460D46BB7B0A201946A5
:1059700000F004FB034618460DF078FA02460B4689
:10598000204629460DF012FC02460B4610461946E9
:105990000DF0C4FD07EE100A7F4BD3ED087A77EEC9
:1059A000877A7D4BC3ED087A7E4B1B6843F4004336
:1059B0007C4A136044E107F108037548194600F07A
:1059C000AFFA0346BB73BB6807EE903AF8EE677A0E
:1059D000714BC3ED097ABB7B0133BB73BB7B6C4A54
:1059E0001A4407F108031046194600F099FA0346D5
:1059F000BB73BB6807EE903AF8EE677A17EE900A31
:105A00000DF056FA04460D46BB7B0A20194600F0FD
:105A1000B5FA034618460DF029FA02460B46204611
:105A200029460DF0C3FB02460B46104619460DF001
:105A300075FD07EE100A584BD3ED097A77EE877A99
:105A4000554BC3ED097A574B1B6843F40063554A25
:105A50001360F5E007F108034D48194600F060FABD
:105A60000346BB73BB6807EE903AF8EE677A4A4B81
:105A7000C3ED0A7ABB7B0133BB73BB7B444A1A4438
:105A800007F108031046194600F04AFA0346BB73B3
:105A9000BB6807EE903AF8EE677A17EE900A0DF0C1
:105AA00007FA04460D46BB7B0A20194600F066FA49
:105AB000034618460DF0DAF902460B462046294601
:105AC0000DF074FB02460B46104619460DF026FDFC
:105AD00007EE100A304BD3ED0A7A77EE877A2E4B19
